:020000040800F2
:1000000038F2002045010008EF4200085D34000886
:10001000ED42000895020008255700080000000086
:100020000000000000000000000000003D54000837
:10003000810500080000000069430008F55400082D
:100040005F0100085F0100085F0100085F01000810
:100050005F0100085F0100085F0100085F01000800
:100060005F0100085F0100085F0100085F010008F0
:100070005F0100085F0100085F0100085F010008E0
:100080005F0100085F0100085F0100085F010008D0
:100090005F0100085F0100085F0100085F010008C0
:1000A0005F0100085F0100085F0100085F010008B0
:1000B0005F0100085F0100085F0100085F010008A0
:1000C0005F0100085F0100085F0100085F01000890
:1000D0005F0100085F0100085F0100085F01000880
:1000E0005F0100085F0100085F0100085F01000870
:1000F0005F0100085F0100085F0100085F01000860
:100100005F010008094600085F0100085F01000860
:100110005F0100085F0100085F0100085F0100083F
:100120005F0100085F0100085F010008F904000892
:10013000DFF80CD000F06EF80048004741C400081A
:1001400038F200200648804706480047FEE7FEE7F1
:10015000FEE7FEE7FEE7FEE7FEE7FEE7FEE7FEE777
:10016000695500083101000810B5431A934209D2BD
:100170008318881803E010F8011D03F8011D521EB2
:10018000F9D210BD40EA01039B0703D009E008C97A
:10019000121F08C0042AFAD203E011F8013B00F84C
:1001A000013B521EF9D210BDD2B201E000F8012B82
:1001B000491EFBD270470022F6E710B513460A46E7
:1001C00004461946FFF7F0FF204610BD30B504463F
:1001D0000020034600E05B1C934203D2E05CCD5C50
:1001E000401BF8D030BD30B50B4601460020202220
:1001F000012409E021FA02F59D4205D303FA02F534
:10020000491B04FA02F52844151EA2F10102F1DC93
:1002100030BD0000064C074D06E0E06840F00103E9
:1002200094E8070098471034AC42F6D3FFF784FFF8
:10023000ACF30008CCF3000870B501EB020410F831
:10024000015B15F0070301D110F8013B2A1106D11B
:1002500010F8012B03E010F8016B01F8016B5B1E35
:10026000F9D12B0705D40023521E0FD401F8013B0E
:10027000FAE710F8013B02F10202A1EB030303E0ED
:1002800013F8015B01F8015B521EF9D5A142D6D3E8
:10029000002070BDFEE770B500254FF4803400E00B
:1002A000641E24B1802004F089F90028F8D02CB114
:1002B00040F2FF5004F03CF9284670BD032070BDA9
:1002C00070B5054600243B49486B00E0486B10F0D0
:1002D000450FFBD0410705D50324042004F028F97D
:1002E000204670BDC00705D00124012004F020F98C
:1002F000204670BD04F05CF9A84201D0102070BD0A
:1003000040F2FF5004F014F9002004F073F92A4978
:10031000084203D0002803DA1C2070BD204670BDBF
:10032000410001D5092070BD810001D50A2070BDB2
:10033000C10001D50B2070BD010101D50C2070BD9D
:10034000410101D50D2070BDC10101D50E2070BD48
:10035000010201D50F2070BD410201D5102070BDF2
:10036000810201D5112070BDC10201D5122070BDDE
:10037000010301D5132070BD410301D5142070BDC8
:10038000810301D5152070BDC10301D5162070BDB4
:10039000010401D5172070BD410401D5182070BD9E
:1003A000810401D5192070BD000701D51A2070BD48
:1003B000204670BD0080014008E0FFFD10B500241C
:1003C0000E4A516B00E0516B11F0450FFBD048070E
:1003D00005D50324042004F0ABF8204610BDC8075F
:1003E00005D00124012004F0A3F8204610BD40F2FE
:1003F000FF5004F09DF8204610BD00000080014031
:1004000010B500240A4A516B00E0516B11F0450F02
:10041000FBD0480705D50324042004F089F82046C2
:1004200010BD40F2FF5004F083F8204610BD0000DC
:100430000080014070B506460C4600251C4A506BF2
:1004400000E0506B10F0450FFBD0410705D50324A9
:10045000042004F06DF8204670BDC00705D00124CB
:10046000012004F065F8204670BD04F0A1F8B04208
:1004700001D0102070BD40F2FF5004F059F8002068
:1004800004F0B8F810F4604F03D0810405D51320B0
:1004900070BD000C2080284670BD410401D510209D
:1004A00070BD000401D50F2070BD284670BD00004E
:1004B0000080014010B500204FF480310D4B5A6B85
:1004C00001E0491E5A6B12F0450F01D10029F8D105
:1004D00009B1510705D50324042004F029F820466A
:1004E00010BD5106FCD50024402004F021F8204620
:1004F00010BD00000080014004F0D2BCC100002902
:1005000002DA0349086070470249486070470000FA
:100510000404024000000240002904D0016841F0B8
:1005200001010160704701684FF6FE7211400160E1
:100530007047002A03D002680A43026070470268CD
:100540008A430260704730B5026847F6F0739A43F9
:100550000C6A8B682343D1E904452C4323438C69FF
:100560002343CC6923434C6A23438C6A23431343BC
:100570000360CA6842600A6882604968C16030BD31
:10058000704701B502E00098401E009000980028D6
:10059000F9D108BD01B5002107E00C200200A0F14F
:1005A0000100C0B2FAD1491C89B200988142F4D34B
:1005B00008BD00004FF0204202EB8000002904D06B
:1005C000016841F00101016070470168014A114072
:1005D00001607047FEFF0F0030B5D0E901121143F2
:1005E000D0E903231A431143426903681143826926
:1005F0001143C2691143026A1143426A1143826A7C
:100600001143C26A1143026B11434FF0204242F87A
:1006100023108168082906D1016802EB81010B686B
:1006200043F040030B60416BD1E9003443EA04130B
:100630008C688D89240244EA054423430C8A43EAEA
:1006400004530C7D896943EA04630B430168491C28
:1006500042F82130C16AB1F5804F07D000686FF0D1
:10066000704102EB8000C0F8041130BD816B00685E
:10067000D1E9003443EA04138C680D8A240244EA69
:10068000055423430C7D896943EA046302EB80002F
:100690000B43C0F8043130BD1CB5304803C8CDE968
:1006A000000100214FF4A073F022084600F054FE30
:1006B0002B4801F0E3FD142205212AA000F0A4FF3D
:1006C0002B4900200BF0AEFA2822052129A000F0CA
:1006D0009BFF0A222DA131480BF0B4FA304C207058
:1006E00050B904F108034822191D2C480BF074FC82
:1006F00020702A480BF08CFA3C22052129A000F03A
:1007000083FF012221A125480BF09CFA2070244B85
:100710004FF480521B1D294920480BF049FB2070E3
:10072000264927A00AF03AFA6422052126A000F003
:100730006BFFFF2001F098FD274801F09FFD01238A
:10074000002269461D4800F067FF14480BF060FA6C
:10075000002108460BF066FAFEE7000018CD0008FD
:10076000D8E00008665F6D6F756E742E2E2E000047
:1007700060DD0020665F6F70656E203A6E6577669B
:10078000696C652E747874202E2E2E00303A6E65BA
:100790007766696C652E7478740000003CDB00207D
:1007A00058000020665F72656164203A6E65776666
:1007B000696C652E747874202E2E2E003CCB0020A0
:1007C0000D0A20257320000066696C6520636F6E3A
:1007D00074656E743A000000D4EE00082DE9FC4701
:1007E0000E460024002700970197584D4FF0080A45
:1007F000C5F800A0102068604FF04009C5F80890C7
:10080000EF604FF48068C5F81080284603F028FF99
:100810001020FFF755FD002833D14D480089000412
:10082000286037206860C5F80890EF60C5F8108030
:10083000284603F015FF3720FFF742FD002820D19E
:1008400005F114004AF6FF710160C0F804A03021E0
:1008500081600221C16007610121416103F080FED6
:100860002F6033206860C5F80890EF60C5F81080ED
:10087000284603F0F5FE3320FFF722FD054615B1AB
:100880002846BDE8FC874FF4001A6F46DFF8C480A5
:1008900040F22A6908E0504603F090FE20B103F0D0
:1008A000D9FE47F82400641CD8F8340010EA090F78
:1008B000F1D0082003F082FE20B1082003F038FEBA
:1008C0000420DEE7022003F079FE20B1022003F0CD
:1008D0002FFE0220D5E7202003F070FE20B120205B
:1008E00003F026FE0620CCE74FF40074204603F008
:1008F00065FE20B1204603F01BFE0720C1E740F251
:10090000FF5003F015FE00980099000601F47F41A6
:1009100040EA0120009901F47F0140EA112000998A
:1009200040EA1160706001980199000601F47F416E
:1009300040EA0120019901F47F0140EA1120019968
:1009400040EA1160306028469BE700001003002059
:10095000340000200080014010B5002001F080FC30
:100960006FF07F4001F080FC012001F0B7FC002017
:1009700001F0BCFC002001F0C3FC002001F07CFC75
:100980000448006801F07AFCBDE81040002001F046
:1009900081BC0000BC0000202DE9F0410022CC7891
:1009A00004F00F03E406002C01DA8C7823430C7862
:1009B0000F274FF0010CE4B105680CFA02F40E8821
:1009C0002640A64211D1960007FA06F825EA080546
:1009D00003FA06F848EA0505CE78282E02D0482EFC
:1009E00002D002E0446100E00461521C082AE4D312
:1009F00005600A88FF2A1ED94568002202F1080610
:100A00000CFA06F40E882640A64210D1960007FA8A
:100A100006F825EA080503FA06F848EA0505CE783F
:100A2000282E00D14461CE78482E00D10461521C9A
:100A3000082AE3D34560BDE8F081024600209268B1
:100A40000A4200D00120704741617047F8B501218A
:100A5000642003F099FC0124ADF800408DF80240B9
:100A600010268DF80360144D69462846FFF794FF61
:100A70000421ADF8001069462846FFF78DFF0821D4
:100A8000ADF800108DF8024048218DF8031069463A
:100A90002846FFF781FF6503ADF800508DF802404E
:100AA0008DF80360054C69462046FFF775FF29461F
:100AB0002046FFF7C9FFF8BD0018014000140140AF
:100AC0000161704770B50C46054600F0E7F8A8686C
:100AD0002168C16261680163A1684163490707D564
:100AE000D0E90021C0E90012D0E90221C0E90212D8
:100AF000A18981842169002903D001DC4FF0000124
:100B0000016270BD2DE9F0411E4617468846054634
:100B100000F0C4F8AC686822414604F58470FFF721
:100B200023FB2846B8472846B04728698068804795
:100B3000A062BDE8F081000010B5044600F0AEF8F8
:100B4000A0680A49383001670949C1660949416707
:100B50000949C1670949816730F8121C21F0030176
:100B600020F8121C0649816510BD0000B59B0008E5
:100B7000B59F00087D9B0008939700087B970008AD
:100B8000059B000810B5044600F088F8A4680C48DE
:100B90009034102120650B4860650B48A0650B4818
:100BA000E0650B48E0600B482061206BA06654F8BC
:100BB0009029204690471020A0630748606410BD2C
:100BC000657E0008AD870008DD0B00080D0D0008EC
:100BD0005D970008F1A30008B4F10008F8B5846837
:100BE00015460F4694F8260080074CD5D4F8FC3003
:100BF000204698470646D4F800312A463946204612
:100C00009847D4F8943005461BB1002201212046B4
:100C100098472069B04201DD012000E00020A16971
:100C2000B14201DA012100E0002108436169A942D3
:100C300001DD012100E000210843E169A94201DA58
:100C4000012100E0002108430AD06068401E0090A6
:100C50002368D4F8A4705B1E002211462046B847D2
:100C6000D4F8A8302A46314620469847D4F89C103C
:100C700020468847D4F8943005466BB10122002104
:100C80002046984708E0D4F8A83020469847D4F882
:100C90009C102046884705462846F8BD70B5044696
:100CA0008068002812D14FF4B875284600F024FA65
:100CB0002A460021A06002F08DFBA0680221C184B9
:100CC0000121046401620249C0F8041170BD0000F2
:100CD000D50C000810B590B0044620220A49684699
:100CE000FFF742FA08492022203108A8FFF73CFA12
:100CF000606B5DF82010C4F8FC1008A951F82000C2
:100D0000C4F8000110B010BD74CD00082DE9F843FF
:100D100084689846154694F826000F46800740D50B
:100D2000D4F8FC30204698470646D4F800312A46CD
:100D300039462046984705462069B04201DD01202A
:100D400000E00020A169B14201DA012100E00021A8
:100D500008436169A94201DD012100E00021084347
:100D6000E169A94201DA012100E0002108430AD02B
:100D70006068401E00902368D4F8A4705B1E0022B7
:100D800011462046B847D4F8A8302A4631462046B6
:100D90009847D4F8A02001B041462046BDE8F04372
:100DA0001047D4F8A830F2E72DE9F04FDFF828B16A
:100DB00091B04FF0FF35DBF80030B3F92210069107
:100DC000DE69B3F924A0F469A189814206D8E289D9
:100DD000824203D3471AD4F8008012E0D4E901819B
:100DE000002970D00A8882426DD84D8885426AD326
:100DF000801A82B2486800EB8200B0F90070B0F946
:100E00000250781C5FD0307EA27C014600FB02F9C4
:100E1000207CCDE90810B3F92A60304602F0EAFFE1
:100E2000C0B20E90DBF8001007FB0980A37C8A6B30
:100E30000127CDE90402CDE90273C869DDE9083272
:100E4000C17E807ECDE900015146069802F0ACFBE0
:100E5000681C18D046F0020002F0CCFFDBF800005E
:100E6000A37C05FB0981826BCDE90273CDE90412F5
:100E7000C069DDE90832C17E807ECDE900015146BE
:100E8000069802F091FBDBF800005D46C069417EE8
:100E9000007E814214D9022E12D086F0040002F0A6
:100EA000A9FF2868C069027EC37E857E02FB03A17C
:100EB000437E099A0698534402FB050202F000FDA6
:100EC0000E9802F097FFDBF80000627C418C114421
:100ED000418411B0BDE8F08FC000002004480068D4
:100EE000C069C06909B1027C0A60407C704700009B
:100EF000C0000020022008807047C06982898A42B1
:100F000002D8C2898A4210D2806880B102888A429F
:100F10000DD843888B420AD3406800EB8100A0EBD8
:100F20008200B0F90000002801DB0120704700209A
:100F3000704700002DE9F0432F4C034687B020682E
:100F40001946B0F92A80C069C06900F082F800280B
:100F50004ED041680088181A01EBC0054046AE78B3
:100F600002F048FF814620686A680123816BCDE961
:100F70000236CDE90421C169CB7E8A7ECDE900230A
:100F80000B7EB0F924102A78B0F9220002F00CFB95
:100F90002068C069477E067EB7421DD9C07E4743A0
:100FA0004643B8F1020F17D000F046FC804600F02F
:100FB0002BFC01F059F921682A78CB69B1F922009C
:100FC000B1F92410DB7E02FB0302CB19314402F09D
:100FD00077FC404601F048F9484602F00BFF2068D4
:100FE0006A78C369B0F922109B7E02FB0311418429
:100FF00007B0BDE8F0830000C000002030B50E4C03
:1010000005460B4620682946C069C06900F021F8F2
:10101000002810D04168008824682A1A0120E46959
:1010200000EBC200085CA47E6043002B03D011F8E3
:1010300032106143196030BDC000002001200880DB
:10104000704700B5C06900F004F8002800D0012006
:1010500000BD06E002888A4202D842888A4202D253
:1010600080680028F6D17047002801D005F006BF3F
:10107000704738B50546FFF7F7FF040009D000F0C8
:10108000AFF82A460021009002F0A4F9684600F06B
:10109000D7F8204638BD0000024A106021F0030056
:1010A000506070474CE0002010B5002814D0044672
:1010B0000A48006B10F8341000290DD002290BD219
:1010C000042101EBC4014158486805F09BFE20460D
:1010D000BDE8104008F030BB10BD000090DF0020DC
:1010E000002805D0034A916B016001B1486090630C
:1010F0007047000090DF00202DE9F041044608F021
:10110000E5F82648E41C24F00305C16B2D1DA94217
:1011100000D90D46846B13E054F8042CAA420ED17A
:1011200084B1216809B162684A60616809B12268C6
:101130000A60826BA2422ED1216881632BE0246871
:10114000002CE9D18046416B80680F1857F8040CD9
:101150003E1A306838B1002008F0B0FB57F8040C94
:101160003E1A3068B8B97068A84214DB3044441B9A
:10117000304608F05BFBD8F80810491BC8F8081087
:10118000D8F810102944C8F8101070683146401B78
:1011900005F038FE20C42046BDE8F08190DF002035
:1011A00010B5002408F092F80C490F2001EBC002A2
:1011B000126C1AB101EBC000006C08E0401EF5D5BE
:1011C00008E04168A14200D90C46806810B18068EF
:1011D0000028F6D1A4F10C0010BD000090DF002023
:1011E00005498A69521C8A61096B01EBC0010A78C2
:1011F000521C0A7000F03CB890DF002010B5FFF7D9
:10120000CFFF64220649B0F5800F04D990FBF2F0BD
:10121000C969484310BDC9694143B1FBF2F010BD33
:1012200090DF00200549102805D94A68B0EB520F1D
:1012300002D3500800E01020886070474CE0002086
:101240000A4902680B6B52F8082C03EBC2021378B0
:10125000022B03D38B690BB15B1E8B611178491E86
:1012600011700021016008467047000090DF0020E7
:10127000002806D00349042202EBC000096B08587D
:101280000830704790DF002070B506460D461446C2
:10129000104600F0D9FA0300164804EB84010AD086
:1012A00050F8210041688068711A2A1ABDE8704020
:1012B000184600F0EDBF00EB8104A268B24201D0F5
:1012C000012200E00022E368AB4201D0012300E0EC
:1012D00000231A430CD0236943B150F821008168E0
:1012E00040686A1A311A184600F090FFC4E9026596
:1012F00070BD0000D0E0002010B5C2B2CBB2D21A4F
:1013000002D5C2F1000212B293B2C0F30722C1F3B8
:10131000072403FB03F3121B01D5524212B2000C47
:1013200092B2A0EB114002FB023200B2002801DAB7
:10133000404200B280B200FB002010BD10B5002179
:10134000084600F0C9FA40F6FF725042BDE810406E
:1013500013460146AFF300802DE9FC4107461C46C9
:1013600015460E46042002F045FD80461148C0682F
:10137000C16C006D0F4406440D440444ADF8007088
:10138000ADF80450ADF80260ADF80640684605F0CF
:1013900053F807E023462A463146384602F090FAD1
:1013A00005F00CF80028F5D1404602F023FDBDE819
:1013B000FC810000B40000202DE9F0411C461646D7
:1013C0000D460746022B02DB0020BDE8F0811C2001
:1013D000FFF792FE0028F8D00DB105610AE0094A36
:1013E00052F8241009B905E011460A68002AFBD119
:1013F0000969016184618682002101604160C0E960
:101400000217E2E7D800002070B51D46FFF7D4FFB1
:10141000040001D000F00EF8E068006820B903482D
:10142000006800EB85008465204670BDC000002088
:10143000FFF756BE70B590B38269022A30DA1C4CB1
:1014400054F8221019B944F822002FE019464B68CD
:10145000002BFBD106E0CB68C5681B682D68AB424A
:1014600003DD09680029F6D11AE0C1B1CB68C6686E
:101470001B683668B3420CD1838A012B05D008E083
:101480001946DB681B68AB4203DB0B68002BF7D106
:1014900029B14B6833B118604A68426004E0FFE745
:1014A000012070BD44F8220048600160002070BD3A
:1014B000D800002008F070BF022801DB0020704730
:1014C000054951F8200004E0C16809680029F6D0F8
:1014D00000680028F8D17047D800002070B5044695
:1014E00001F02EFA051908E000F019F9052C01DDCC
:1014F000052000E0204601F017FA01F021FA2C1A2D
:10150000002CF1DC70BD00002DE9FC4706005BD02B
:1015100000F0A4F93B4C81462068B0F9228000F02D
:10152000B3F9216807468A8CD01B888441E000BF4C
:1015300047F6FF71304601F0D7FD8246014630463E
:1015400001F0A8FD2168054691F82C0000F0030089
:1015500001283FD0022839D000204A8C101A488434
:10156000ADF800006A1E1044ADF80400888CADF898
:101570000200A9F101010844ADF806006A4651468F
:10158000304601F069FB2168BDF8020088845146AD
:10159000304601F089F8064430780A281CD00D281E
:1015A0001AD0BDF80000216828444884307818B16A
:1015B000761C30780028BBD12068818C3944818426
:1015C000818D21F003018185BDE8FC8705EBD57095
:1015D0004010C2E72846C0E7206890F82C1001F0C0
:1015E000030101290BD0022909D0018C41843178F3
:1015F0000A29DBD1828C02EB09018184D6E7A0F8AD
:101600002280F4E7C0000020024B1B6859849A84B2
:10161000FFF77ABFC00000202DE9FF4F85B090464C
:101620008A46070078D00C68DAF8046021B230B23C
:10163000401A401C029000F011F9054618F00C0FFA
:101640001ED03846089A029901F049F908F00C01B9
:10165000042904D0082902D00C2911D104E0311446
:1016600000FB1510401C09E02114C1EB264200FBD1
:101670001520401C00EBD07001EB600060F31F44AC
:10168000504600F0EFFDA5F1010B04903846089A92
:10169000029901F06DFE03904FEA244909EB0B001B
:1016A00060F31F46CDE900463846039901F0F2FC8D
:1016B00018F003010ED0012928D002290ED1BAF961
:1016C0000420BAF90010521A101A00EBD07001EB86
:1016D000600001E0BAF80000ADF800006A46384644
:1016E000039901F0B9FA3846089A029901F036FEDA
:1016F000074409EB050060F31F4438780028C5D182
:10170000049809B0BDE8F04F00F0ACBDBAF8041081
:10171000081A401CE0E7FFE709B0BDE8F08F10B5FC
:10172000002400E0012400F005F80028FAD120464A
:1017300010BD0000064810B50068002410B18047B5
:1017400000B1012404F080F900B10124204610BD4D
:10175000E000002008B50B46002805D000928188E3
:101760008268C08800F001F808BD10B50828029C06
:1017700030D008DC04FB01F401280AD0022813D081
:10178000042804D11CE0102828D020282CD00020C8
:1017900010BD04EBD30003F00701105CC1F1070199
:1017A000C84000F0010010BD04EB93000621105C5E
:1017B00001EA4301C1F10601C84000F0030010BD79
:1017C00004EB5300D907105C02D000F00F0010BDED
:1017D000000910BD04FB0130105C10BD481004FB73
:1017E000003032F8100010BD881004FB003052F8B1
:1017F000200010BD034951F82000C1688A6A082101
:1018000010470000D800002010B502F089F8BDE8AC
:10181000104002F027B9000002490968C9694A6806
:1018200000211047C0000020024A1268D2695268A5
:1018300010470000C000002010B502F079F8BDE8A4
:10184000104002F00FB900000021022802D2024924
:1018500051F82010084670475401002002480068E3
:10186000C069407E70470000C000002070B514467B
:101870000D4602F097F8002802D000202860206072
:1018800070BD01F04DBC00000A490020096891F8C4
:101890002C2002F00C02042A07D0082A01D00C2ABE
:1018A00002D1C869007E40087047C869007E401EAA
:1018B00070470000C0000020024951F82000006974
:1018C00000687047D8000020024951F820000069E4
:1018D00040687047D800002070B50D4607F056FCF0
:1018E0000446284607F05AFC204370BD124810B544
:1018F000016821F001010160104801218160104957
:10190000016000680F49884200D0FEE701F08AF9C3
:101910000D492E20087001F019F80C4807F09EFCC4
:101920000AF031F904460021084600F0BBFC04F03F
:1019300099FA204610BD0000002000E0003002406F
:10194000C2A507F4CDB5E8B5B400002058E00020EA
:101950001CB520B90C480068006E002812D0FFF7B3
:101960003FFC009044696846FFF76AFC002C09D0F0
:101970002046FFF735FC019081688968884701A8F7
:10198000FFF75EFC1CBD0000C000002001490A46B4
:1019900000F002B801F0FFFF2DE9F04387B01546D3
:1019A0000C465FEA000842D0002000F065FC81464A
:1019B00020480068066E4046FFF712FC0090006861
:1019C000806900F03BFC074640F6FF70001904D127
:1019D0000098B0F90440B0F906500098611E0289E1
:1019E000ADF804401144ADF808104189681E084460
:1019F000ADF80650ADF80A0003F096FE6846FFF712
:101A00001FFC01A804F018FD06E02A4621464046C6
:101A100000F0F8FA04F0D2FC0028F6D1384600F0C5
:101A20000DFC304600F048F9484600F025FC07B0B0
:101A3000BDE8F083C00000202DE9FE4F8346194821
:101A40008A46194900680C9E9846407C91460027BA
:101A500051F82040E1680968042903D02468002C6B
:101A6000F8D100E014B9FFF727FD04460121E06832
:101A7000C26A20469047050011D02469A0688047BB
:101A8000401C02D1094C46F001060096CDE90154F4
:101A900043464A465146584600F09AF907463846AA
:101AA000BDE8FE8FC0000020D800002008F3000829
:101AB00038B5040018D00D480068006EA04201D16E
:101AC00000F0B2FB2046FFF78BFB0090406908B1A5
:101AD00000F0F3FE00980068FFF7AAFC6846FFF7E5
:101AE000AFFB2046FFF7E0FA38BD0000C000002041
:101AF0002DE9FF4F83B0454CDDF840B098468A464B
:101B000007002BD002A901A8FFF7BBFEB7F90060C0
:101B1000002E00DA0026B7F90250002D00DA002569
:101B20002068A146407C01F056FF01990144491EFE
:101B3000B7F9040007F097FC0446D9F80000407C90
:101B400001F04FFF02990144491EB7F9060007F062
:101B50008AFCA71B7F1C441B641C0BE0206800262A
:101B60003546407C01F037FF07462068407C01F095
:101B700038FF0446B8F1000F01D1C4F10008002F6E
:101B800001DD002C03DC002007B0BDE8F08F4346E8
:101B90003A4629463046CDF800B0FFF74DFF5FEAE0
:101BA000000909D000F054F88046484600F084F857
:101BB0000027DFF85CB01FE05146059888470120F8
:101BC000E2E7E11B414502DA484600F05FF83FB129
:101BD000EA193146484600F099F84846FFF7B8FE42
:101BE000514605988847DBF8001009B10020884766
:101BF0004846FFF7CBFE4744A742E2DB4846FFF7E3
:101C000057FF002000F058F8BDE70000C00000209A
:101C1000F401002038B5002460B1FFF7E1FA00902C
:101C2000006800698068804702F0E2FA044668466E
:101C3000FFF706FB204638BD38B5FFF7D1FA00F1B3
:101C4000180400906846FFF7FBFA204638BD0000F4
:101C500038B5002418B907480068006E38B1FFF79E
:101C6000BFFA0090B0F90A406846FFF7E9FA20464B
:101C700038BD0000C000002010B505F02DFA002886
:101C800003D0BDE8104000F06DB810BD38B50C466B
:101C900020B908480068006E00280AD0FFF7A0FAB3
:101CA0000090B0F90A10A14200DD44816846FFF7B8
:101CB000C7FA38BDC0000020F8B5134E05003068E3
:101CC000046E0CD00CB100F0AFFA03F01BFE2846F6
:101CD000FFF786FA009031680A6E1AB106E000F04C
:101CE000A3FA0EE0D1E90223C1E919230D660068C9
:101CF000FFF7A0FB6846FFF7A3FA02F0D9F802F05D
:101D000059F82046F8BD0000C00000207CB51546FB
:101D10000C4620B912480068006E00281FD0FFF75B
:101D20005FFA2DB20090C58024B2848002F042F8A0
:101D30000098406980B1FFF753FA009A0190B2F918
:101D400008108180B2F90A20C28011B10AB1048062
:101D5000458001A8FFF774FA6846FFF771FA7CBD69
:101D6000C000002001490A4600F002B801F0FFFF60
:101D70007FB515460C46060028D0FFF731FA40F62D
:101D8000FF710190091903D1B0F90440B0F9065070
:101D90000289611E1144ADF80840ADF80C1041896C
:101DA000681E0844ADF80E00ADF80A5001A8FFF710
:101DB00047FA02A804F040FB06E02A4621463046D6
:101DC00000F008F904F0FAFA0028F6D17FBD00000F
:101DD0002DE9FF4FDFF8E0B083B01C46DBF80010C0
:101DE000DDE91060924600274B7C3A461299FFF7D6
:101DF000E3FA05005DD028698068804702F0F8F9B1
:101E000081460AFB09F0C01D4FEAD008FFF7F6F93A
:101E1000F10705D1C11700EB9170801000EB400075
:101E2000002C06DC1838B0FBF8F06442A04200DC5D
:101E30000446F00707D10090DDE90301234652462E
:101E400000F0B2FC0746002C03DC2846FFF7F0FA4E
:101E50002FE004FB08F01830F10702D0FFF704F977
:101E600001E0FFF706F906001CD0FFF7B9F9019071
:101E70000560039981800499C180A0F808A044817D
:101E8000C0F80C80C0E9049701A8FFF7D9F91298AF
:101E9000AE602861DBF80000407CA861304607B0E6
:101EA000BDE8F08F2846FFF7C3FA17B13846FFF7B1
:101EB000FBF80020F3E70000C00000202DE9F74FF9
:101EC00092B090461298FFF78BF90B90B0F908107A
:101ED0000691B0F90A100D9100680069D0F804B0BD
:101EE0000BA8FFF7ADF9384C384D2068407C55F809
:101EF0002000C1688A6A082190478146182801D3CA
:101F00004FF020092068407C55F8200000690790B8
:101F100003C80C902E48814201D0012000E000202F
:101F20001090002000F013FD002849D10026DDE9C3
:101F30001207B2460FAB069C4546761C0193FFF78D
:101F40007BFE014604FB0AF001EB80022346294692
:101F50003846CDF800B000F0D7FE050030D010981C
:101F6000D0B1DDE906134A46284600F0A1FD98B934
:101F7000DDE906702C46D0F810C0BCF1000F05D08A
:101F8000294604233A460846E04705E00C992068B4
:101F9000884701C47F1EF9D10020CDE903050590D3
:101FA00001200090CDE901094146034608F10108EE
:101FB000069A139801F0F8FA0D98401E0D90B6D1CC
:101FC00015B0BDE8F08F0000C0000020D800002050
:101FD000AF3A0008F8B515460E460746FFF700F978
:101FE000009000681621C068426A002090470446AD
:101FF0006846FFF725F9002C03D02A4631463846BB
:10200000A047F8BDF8B515460E460746FFF7E8F8B5
:10201000009044696846FFF713F93846FFF7FAFD68
:102020000346082800DD2CB12A463146384608F020
:10203000FDF9F8BD2A463146384608F08FFBF8BD59
:1020400010B5002821D009B30AB3B1F90040B2F9A4
:1020500000309C4200DA23460380B1F90240B2F915
:1020600002309C4200DA23464380B1F90440B2F9C1
:1020700004309C4200DD23468380B1F90610B2F99A
:102080000620914200DC1146C18010BD11460A684D
:1020900002604968416010BD00280BD003880B44E2
:1020A0000380838819448180418811444180C1881C
:1020B0001144C1807047000070B5104D0446D5E949
:1020C000000188420ED10E49884203D1D0E90F1297
:1020D000406C03E00C38D0E9001280682160C4E94C
:1020E000012006E090E80E0084E80E0007F05EF89C
:1020F0002860207A002800D0012070BD4C0100200B
:1021000014E100200448D0E90010814201D10120EF
:1021100070470020704700004C010020054A10B5B0
:102120000349116008F056F8BDE8104000F0F2B81D
:10213000015B0008E400002070B5094C0020D4E9E0
:1021400000218A420AD0D2E90056104607F046F82C
:1021500020603146284603F069FF012070BD000071
:10216000DC0100202DE9FC41154DDDE908742D68E6
:10217000B5F90860864200DD3046B5F90C6096423C
:1021800000DA3246824219DBB5F90A608E4200DD80
:102190003146B5F90E509D4200DA2B468B420DDBDD
:1021A00000E02C46E5682D6825B1042D02D0256895
:1021B000002DF6D1CDE9007401F0CCFCBDE8FC8126
:1021C000C0000020B0F90220B1F906309A4213DCB9
:1021D000B1F90220B0F906309A420DDCB0F90020C6
:1021E000B1F904309A4207DCB1F90010B0F90400EB
:1021F000814201DC012070470020704701460248FF
:1022000078220068FDF7B0BFC0000020002801D090
:1022100007F07ABD70470000024978220968FDF78F
:10222000A3BF0000C000002010B501F077FD01F051
:102230003FFEBDE8104003F077BA000070B50446D9
:102240000548022C0068457C02D24474FFF7ECFF7D
:1022500002480460284670BDC000002080010020B4
:1022600001F07EBD03F0E4BF01F0B2BD014988601A
:1022700070470000B400002001F0BCBD03490968AC
:10228000CA6900B1C861104670470000C000002054
:1022900001F0CCBD024909688A7E887610467047F5
:1022A000C0000020094A30B41080094A1180094A50
:1022B0001268537C084A52F82330DA68146A0A46D6
:1022C000A446014630BC184660470000F0000020DC
:1022D000F2000020C0000020D80000200249096858
:1022E0000A7E087610467047C0000020034909683E
:1022F000B1F92C208885104670470000C0000020EE
:1023000003490968B1F92A20488510467047000042
:10231000C000002002480068002800D00047704735
:10232000E801002002498A6802B98860FFF7F2BF1D
:10233000DC01002010B5040009D007F091FA204616
:1023400008F002F82046BDE81040FEF7ADBE10BD13
:1023500038B50C4660B1FEF743FF009080892042FB
:1023600001D0012400E000246846FEF769FF00E088
:102370000124204638BD000038B5054600202860FD
:102380000648046844B12046FEF72AFF0090006921
:1023900028606846FEF754FF204638BD50020020F2
:1023A00038B504004FF000000D46086011D02046FB
:1023B000FEF716FF0090846844B16846FEF740FFC0
:1023C0002046FEF70DFF0090006928606846FEF782
:1023D00037FF204638BD00002DE9F84FDFF89C801C
:1023E0000546274F98F818008B46410738680A9E23
:1023F0009946407C924607D401F0FEFA04463868BC
:10240000407C01F005FB06E001F002FB0446386861
:10241000407C01F0F1FA002795B1A0F1010400BF62
:10242000B9EB060000D54042142806DB5146BBEB51
:102430000A0000D54042142804DA0120BDE8F88FD4
:10244000641EEDE70A464B4659463846009606F0AC
:10245000CFFF0C4F4B46524647F8350059462046B1
:10246000009606F0C5FF07EBC501486007F062FB68
:1024700001210020C8F81C10E0E70000F400002053
:10248000C000002004E100202DE9F047524D534EDA
:102490000024E86978B96868346000F00501746068
:1024A00010F0060F01D000F00500B460F46007F0F2
:1024B00041FB0120E8612878C8B100F0D9F8A846AE
:1024C000286100F0D3F82969286A81420BDBD8F82B
:1024D00024204046914206DC836A42699A4202DB2C
:1024E000C36A9A420DDD4FF0FF3001466FE000F005
:1024F000C2F8686100F0BBF82878401C2870BDE87D
:10250000F087326898F81800354F8D1A4007002878
:102510003868407C02DB01F06FFA01E001F078FAE4
:10252000401E4543D6E90020B146801A95FBF0F6DF
:10253000D8F81420D9F8081098F81800551A400750
:1025400000283868407C02DB01F062FA01E001F00B
:1025500053FA401E4543D9E90201081A95FBF0F5EC
:1025600098F81800400700283868407C18DB01F014
:1025700043FA81463868407C01F04AFAD8F81820BE
:102580000146D00704D0A9EB0600A0F1010000E04D
:102590003046920702D5491B491E18E0294616E02D
:1025A00001F036FA81463868407C01F025FAD8F807
:1025B0001820D10704D0A9EB0601A1F1010100E028
:1025C0003146920702D5401B401E00E0284607F026
:1025D0002DFE88F8004092E7F400002004E100207E
:1025E000C00000200149886170470000F40000200D
:1025F000074A002806DB002904DB01231372C2E925
:10260000000101E000201072014800F003B8000052
:10261000CCE1002010B504460C220749FDF7D6FD99
:10262000002808D0044894E80E000EC02046BDE8FB
:102630001040FFF773BD10BDF8E0002030B40A4C25
:102640002268831A01D5C3F1000362688A1A00D593
:1026500052421A44022A04DDC4E9000130BCFFF7EB
:10266000C7BF30BC704700005C0100207047704756
:10267000D02004F01BBB902004F018BB2DE9F041E2
:10268000084E0446056830680168284688470746B2
:102690003068416828468847284420603846BDE8AD
:1026A000F0810000C40000202DE9F0410C460646F0
:1026B0000025064F05E038684168304688470644E3
:1026C0000544641EF7D22846BDE8F081C40000200E
:1026D0002DE9F0411E46069C1746884605463A46B7
:1026E000A8687F1C3346D0F804C041462846E0471E
:1026F000641EF4D1BDE8F08170B5B0F90040091B4B
:10270000B0F904408C422CDD00F11404B0F9025001
:102710000069521B02FB0040CA1800EBE104521E84
:10272000D010B0EBE10501F007034FF0FF0102F01C
:10273000070221FA03F0C2F1070201FA02F1CEB258
:1027400021780FD001436D1E04F8011B002D05DD1B
:10275000FF2229462046FDF727FD2C4420783043F0
:10276000207070BD30400143217070BD10B5B0F9CC
:102770000030B0F90240C91A00F114030069121BBD
:1027800002FB003000EBE10001F00703027880213A
:10279000D9400A43027010BDB0F9061002695143D6
:1027A0001430FDF708BD00002DE9F843804602F122
:1027B0000F000011470003FB07F01C461546894631
:1027C0001430FEF756FC060013D0FEF709FD00900A
:1027D000A0F80080A0F802908580C480064981603E
:1027E0000121818107616846FEF72AFD3046BDE878
:1027F000F8830020FBE7000094F3000870B5B0F9FF
:102800000660B0F904400B6800F11405964220DD23
:102810000069A34202FB005000EBE30219DAA4F1C5
:1028200001044FEAE400A0EBE30512F8010B03F00A
:10283000070400FA04F0C4B208E055B112F8014BE5
:1028400003F10803A5F1010523F00703002CF4D0E0
:1028500008E0002070BD00BF4FEA44604FEA1064FA
:1028600003F101032006F7D5FF2C0AD0184605E036
:102870004FEA44644FEA146400F101006606F7D49D
:1028800000E0D81DC443640706D007E012F8014BEE
:10289000FF2C0FD100F108006D1EF7D5A0EB03004F
:1028A00000F101000B6070BD4FEA44624FEA126410
:1028B00000F101002206F7D4F0E738B50546FEF72F
:1028C0008FFC00908189491E0CB284816846FEF716
:1028D000B7FC002C02D12846FEF7E6FB38BD2DE9F7
:1028E000F04116460F460546002432463946284632
:1028F00000F034FD054408B1641CF6E72046BDE84D
:10290000F081000010B54FF448410548FEF7C4FBC4
:102910008020FEF787FCBDE810400248FFF7A6BC08
:102920003C030020A8D4000803490A6810440A6840
:10293000821A002AFBDC7047540000207047000018
:1029400001480068704700005400002070470EB531
:1029500008B102AA00E00022002301A9684600F0A5
:1029600051FB0EBD074910B5CC6818B10120C860F5
:10297000801E03E00020C8606FF07F4000F09CFDE7
:10298000204610BD3002002010B5082A0EDC034698
:10299000012A1AD0022A58D0042A78D010F8042B21
:1029A00003F8012B491EF9D1012010BD102A0ADCC1
:1029B0000222022AF8D1024630F8043B22F8023BF8
:1029C000491EF9D1F0E7002010BD10F8042BD20702
:1029D000120E491E34D010F8044B491E04F00104B5
:1029E00042EA84122CD010F8044B491E04F0010472
:1029F00042EA441224D010F8044B491E04F00104AA
:102A000042EA04121CD010F8044B491E04F00104E1
:102A100042EAC40214D010F8044B491E04F0010429
:102A200042EA84020CD010F8044B491E04F0010461
:102A300042EA440204D010F8044B04F0010422439B
:102A400003F8012B0029C0D1AEE710F8042B920740
:102A5000120E491E15D010F8044B491E04F0030451
:102A600042EA04120DD010F8044B491E04F003048E
:102A700042EA840205D010F8044B04F00304224318
:102A8000491E03F8012B0029DFD18DE7FFE710F87D
:102A9000042B1207120E491E05D010F8044B04F047
:102AA0000F042243491E03F8012B0029EFD17BE7D5
:102AB0002DE9F0411E680D460446082A09DC074648
:102AC000012A21D0022A62D0042A7CD0082A1AD1F5
:102AD00095E0102A03DC02200228F8D102E0002051
:102AE000BDE8F081D3F810C02746BCF1000F04D038
:102AF0000A462146022308468AE001CCB04727F85F
:102B0000020B6D1EF9D18BE001CCB047C0074FEA34
:102B100010686D1E36D001CCB04748EA801000F036
:102B2000FF086D1E2ED001CCB04748EA401000F0DF
:102B3000FF086D1E26D001CCB04748EA001000F017
:102B4000FF086D1E1ED001CCB04748EAC00000F05F
:102B5000FF086D1E16D001CCB04748EA800000F097
:102B6000FF086D1E0ED001CCB04748EA400000F0CF
:102B7000FF086D1E06D001CCB04740EA080000F007
:102B8000FF086D1E07F8018B002DBDD148E001CC78
:102B9000B04780074FEA10686D1E18D001CCB047CF
:102BA00048EA001000F0FF086D1E10D001CCB047BD
:102BB00048EA800000F0FF086D1E08D001CCB04745
:102BC00040EA080000E007E000F0FF086D1E07F88B
:102BD000018B002DDBD123E001CCB04700074FEA89
:102BE00010686D1E06D001CCB04740EA080000F026
:102BF000FF086D1E07F8018B002DEDD110E0D3F812
:102C000010C0BCF1000F05D00A460146012338462A
:102C1000E04705E001CCB04707F8010B6D1EF9D184
:102C200001205DE70A4810B5816900290ED1012114
:102C30008161FFF767FE01F061F9054905481C3124
:102C40000860BDE81040084600F080BB10BD0000E1
:102C5000B4000020119500087CB5064628480D46B2
:102C6000006868B1002003F0E7FB06E06A462946E9
:102C7000304604F0E5FA03F0A1FB0028F6D17CBD54
:102C8000106800901F4C506801902268BDF8000049
:102C900032F84C1F0844ADF80000BDF802009188DE
:102CA0000844ADF80200BDF8040011880844ADF8EE
:102CB0000400BDF8060091880844ADF80600684697
:102CC00003F0BAFB0EE000BF2068BDF800106A46B2
:102CD0004184BDF8021081842946304604F0B0FAE0
:102CE00003F06CFB0028EFD1206830F8221F428DE2
:102CF000891A01804188C28D891A41807CBD0000FB
:102D0000EC000020C00000202DE9FF4F00208BB018
:102D100004460146009019981D461646016007AB0F
:102D2000002203A902A800F06DF918B100200FB02D
:102D3000BDE8F08F0798854200DD05465C4F0A9597
:102D40005C493868407C51F820100491096906916B
:102D5000FEF750FD05903868407CFEF7B5FD5649FA
:102D60008146884204D05549894501D0012000E0C0
:102D70000020099001CE1899884782465FEA106BBF
:102D800071D0009870BB0B9800EB040848480068AD
:102D9000B0F90800404503DDA0EB0807804600E0DD
:102DA00000270299049801EB840101EB8701CDE92A
:102DB0000010DDE90A010A180C9B0892521E194600
:102DC0004046FFF7CFF901200090059818280ADA4D
:102DD0000298DDE9052300EB840000EB8700E91B86
:102DE00000F070F810E0099870B1029800EB8400D0
:102DF00000EB87070898A0EB080849463868884721
:102E000001C7B8F10108F8D12D48C06960B3DDE908
:102E1000020700EB840007EB8402CDE90202284C94
:102E2000361F2B46E46930460299A047FF203168DF
:102E3000B0EB116F02D10299096804E0029A12689E
:102E4000B0EB126F01D1039A11600299361D091D72
:102E500002910399091D03916D1EE8D11999012072
:102E6000039708601DE01EE0FFE7BBF1FF0F0ED0E7
:102E70000298CBF1FF0250F82410504600F00EFAF1
:102E8000039941F8240019990120086005E002988F
:102E9000039950F8240041F82400641C6D1E7FF44F
:102EA00069AF039843E7039941F824A0EBE70000DA
:102EB000C0000020D8000020AF3A0008AD3A00085A
:102EC000080200202DE9F05F0C1E16DD5E68014649
:102ED00000EB8405082A12DC611E012A28D0022A90
:102EE00048D0042A6AD0082A07D1071917F8010D1B
:102EF000B04745F8040D641EF8D1BDE8F09F102AD4
:102F0000FBDC0222022AF8D15F693FB12246BC46AF
:102F1000BDE8F04F02235DF804EB604701EB440786
:102F200037F8020DB04745F8040D641EF8D1E4E708
:102F300000EBE1002D1F10F801A9814601F0070701
:102F4000802020FA07F800BF0AEA0800C7F107014D
:102F5000C840B04745F804093FB17F1E4FEA4860BA
:102F6000000E8046641EEFD1C7E7072719F801A9B4
:102F70000120F6E700EBA1002D1F01F0030710F878
:102F800001A981467900C02020FA01F84FF0060B14
:102F90000AEA0800ABEB4701C840B04745F804090E
:102FA0003FB17F1E4FEA8860000E8046641EEFD15D
:102FB000A3E7032719F801A93846F6E700EB6100FB
:102FC00001272D1FA74310F801A98146B900F02061
:102FD00020FA01F84FF0040B0AEA0800ABEB870176
:102FE000C840B04745F804093FB17F1E4FEA08705A
:102FF000000E8046641EEFD17FE7012719F801A972
:103000000F20F6E72DE9F047204C06461F46A06941
:1030100090468946002540B90120A06104F12001B5
:103020001B480860084600F091F9606910B900F08B
:10303000D5FC606107B138604EB1A06830B96069F5
:103040008000FEF759F8A06000B901253060B9F1A1
:10305000000F0AD0E06830B960698000FEF74CF8D4
:10306000E06000B90125C9F80000B8F1000F0AD0EE
:10307000206930B960698000FEF73EF8206100B930
:103080000125C8F800002846BDE8F08708020020A6
:103090008595000873B5124A01A9009812689047F7
:1030A00000240090C8B10F4900250968C969496921
:1030B00059B10A684AB1019990477CBD6846FFF74B
:1030C000DDFA0546FEF7A8FB04440198401E019076
:1030D000F4D5284600F032F8044420467CBD0000B8
:1030E00048010020C000002073B50D460098002460
:1030F00090B10A490968C969496959B14A684AB130
:10310000294690477CBD6846FFF7B8FA20B10A28E7
:1031100002D0641CAC42F6DB20467CBDC00000201F
:10312000044AB2F9002002600348B0F900000860C8
:1031300070470000F0000020F200002038B50024A5
:1031400069460094FEF770FB0099814200DD0C1A7D
:10315000204638BDB0F90030B1F90020934200DAC2
:103160000280B0F90230B1F90220934200DA4280C5
:10317000B0F90430B1F90420934200DD8280B0F947
:103180000620B1F906108A4200DDC180704770B593
:10319000B1F90040B2F900309C4200DD23460380C3
:1031A000B1F90250B2F90240A54200DD2C4644803C
:1031B000B1F90460B2F90450AE4200DA35468580B8
:1031C000B1F90610B2F90620914200DB1146C18028
:1031D0009D4201DBA14201DA002070BD012070BDDB
:1031E000014602480068407C00F002B8C0000020A0
:1031F000F8B501260F46054602284BDA264C5FB388
:10320000012F02D0022F45D116E054F8250088B9CD
:103210002846FEF751F90090B8B3C0680D21426A04
:1032200068469047020035D039460098904754F8D8
:1032300025000026401C2BE0FEF73EF9009020B34D
:10324000C0680D21426A68469047020022D0394684
:103250000098904700261DE054F8250001280FD162
:103260002846FEF729F9009050B1C0680D21426A46
:1032700068469047020003D03946009890470026E0
:1032800054F8250010B1012101E003E00021401AAB
:1032900044F825003046F8BDD401002070B5FF2366
:1032A000B3EB116F29D0C3B200F47F4500F47F0463
:1032B000060E5343554354435643C2F1FF00CAB26E
:1032C00002FB003201F47F4303FB005301F47F054E
:1032D00005FB0044090E01FB0065C2F307204FF413
:1032E0007F4101EA1322090201EA14214FF07F43D2
:1032F000104303EA05430843184370BD2DE9F04F1E
:103300001546DDE90CB90C4606464FF0000818E0FA
:103310000B9F4FF0FF0A01CE08CCAAEB106202FB14
:1033200009F2B2FBFAF1CAB21946FFF7B7FF20F073
:103330007F4001C57F1EEED1099808F1010804EB1A
:103340008004D845E4D3BDE8F08F000002494A6903
:103350004260486170470000B400002010B5044688
:1033600000F009F801462046BDE81040FFF79CB97F
:10337000002307F029B877B581B015460E466B4695
:10338000019807F021F8044601460198FFF78CF9EF
:1033900001990844019001A8FFF770F90A2802D0AA
:1033A000012D02D012E0641C10E020280ED1FEF79F
:1033B00033FA054607E028440090641C01A8FFF793
:1033C0005DF9202802D100988642F4DA04B0204644
:1033D00070BD000010B502E000F8011B521E0AB1DA
:1033E0008307F9D1930818D001EB014402F00302DE
:1033F00004EB042405E0046044608460C460103081
:103400001B1F042BF7DA01E010C05B1E002BFBD161
:1034100003E000BF00F8011B521E002AFAD110BDC4
:1034200010B5830702D520F8021B521E530810D096
:1034300001EB0144042B08DB046044608460C46039
:1034400010301B1F042BF7DA01E010C05B1E002BAD
:10345000FBD1D20700D0018010BD000001A007F011
:103460009DFBFEE70D0A206861726466616C7574ED
:10347000206572720D0A000030B50546002440F246
:103480003F11002000F00BF800F02AFD4FF49632B7
:10349000284600F01FFD641C9442F9D330BD00B5EE
:1034A0000B460146202000F021FD194621205DF841
:1034B00004EB00F01BBD000002490A6808601046DA
:1034C00070470000640200200449054A0968497CED
:1034D00052F821100969096808470000C00000205F
:1034E000D80000202DE9F8430121080200F03EFF3A
:1034F0000121682000F048FF10248DF803400325C7
:103500008DF802500226ADF80060244F6946384617
:10351000FDF742FA8DF8025018218DF803104CF295
:103520000371ADF80010DFF8788069464046FDF77A
:1035300033FA4FF68071ADF8001069463846FDF752
:103540002BFAADF8004069464046FDF725FA2020E9
:10355000ADF8000069464046FDF71EFA8020ADF840
:10356000000069464046FDF717FAE001ADF800009B
:1035700069464046FDF710FA8DF803408DF8025079
:10358000ADF80060074C69462046FDF705FA0221B8
:103590002046FDF795FABDE8F883000000180140C9
:1035A00000140140000C01402DE9F04F05468DB09C
:1035B0007C48DDF860901A9C00681E4617464FF064
:1035C000000A78B11B9B199ACDF808900593CDE9B4
:1035D0000324DDE91623CDE90023046833463A4687
:1035E000284682E0DDE9160201EB060805EB070C30
:1035F0001043A8F10108ACF1010C012806D0C9F173
:1036000008000590002002910890C8E06648026812
:10361000B2F90A30581A002806DD361A002E65DD88
:103620001946199B00FB0344B2F90E00A8EB0000F9
:10363000002802DD361A002E58DDB2F90C00ACEB82
:103640000000002800DD3F1AB2F908300020AB422C
:1036500037DD581B3F1A4B46B9F1080F28D007DC5D
:10366000012B0DD0022B13D0B9F1040F29D117E093
:10367000102B1FD0182B20D0B9F1200F21D11CE026
:1036800020F0070304EBE0041D4400F0070018E0FD
:1036900020F0030304EBA0041D4400F0030010E03D
:1036A00020F0010304EB60041D4400F0010008E079
:1036B000044404E004EB400401E004EB800405440E
:1036C0000020002F12DD1B9BDDF864C0CDE9040350
:1036D000CDE902C4CDE90069527C34483B4650F83C
:1036E0002200C26854680A462946A0470DB0BDE8CA
:1036F000F08F17990298084409902B49401E0090BA
:103700000A68B2F90A30834241DCB2F90E1002981D
:1037100081423CDB4FF0000BD84603950B9434E01C
:10372000BBF1000F05D10B984FF0080B10F801AB5F
:103730000B900599ABEB090B3AFA01F00AFA09F183
:1037400001F0FF0A04D118490968097C890716D4D9
:1037500015490968C96B0A680C921B9A0AB152F89C
:103760002000086016990398009B4218521E029987
:1037700000F0A6F80C490C980968C96B0860039919
:10378000169808F1010808440390B845C8DB08986A
:10379000401C089009980290199804440898B04277
:1037A000A7DBA3E7EC000020C0000020D800002029
:1037B000F0B40C4612490968B1F90A30A3421CDC86
:1037C000B1F90E30A34218DBB1F90830834200DDB5
:1037D0001846B1F90C30934200DA1A4682420CDBEB
:1037E0004B7C084951F8235013462246E9688E68FD
:1037F00001462846B446F0BC6047F0BC7047000064
:10380000C0000020D80000200A46174930B40968DB
:10381000B1F90A30934225DCB1F90E30934221DB35
:10382000B1F9083083421DDCB1F90C30834219DB59
:103830000B7C0E4CDB0709D0497C54F82130D96849
:10384000CC690146A44630BC18466047CB6B497C26
:103850001B6854F82140E1688D6901462046AC465A
:1038600030BC604730BC7047C0000020D80000204A
:1038700000B597B001200190002002900221039131
:10388000049005900690C9060791089009900821B8
:103890000A9110210B910C900E900F90109009023C
:1038A000119112901390149001A81590169008A8E9
:1038B000FCF792FE01210020FCF77CFE17B000BD52
:1038C00038B5134C2468B4F90850854200DD284609
:1038D000B4F90C50954200DA2A46824217DBB4F95B
:1038E0000A508D4200DD2946B4F90E509D4200DA9F
:1038F0002B468B420BDB0093647C064B53F8244031
:10390000E3681D6913460A4601462046A84738BDAC
:10391000C0000020D8000020082105F01FBB0000D7
:1039200002480068806B006870470000C0000020FB
:1039300002480068C06B006870470000C0000020AB
:103940000C2105F00BBB0D2105F008BB0248092135
:103950000068407C05F002BBC0000020092105F092
:10396000FDBA70B500252C462046FDF7A5FD00B137
:103970006D1C641C022CF7DB284670BD02480068F1
:10398000407C00F003B80000C000002010B5FDF737
:1039900093FD002805D0C168CA6ABDE81040022125
:1039A000104710BDF8B515460E460124FDF784FDFD
:1039B000009058B1C0680421426A684690470300ED
:1039C00004D02A4631460098984700242046F8BD86
:1039D0000E2105F0C3BA032105F0C0BA032005F09B
:1039E00038BB042105F0BABA024801210068407CC6
:1039F00005F0B4BAC0000020012105F0AFBA000004
:103A0000024802210068407C05F0A8BAC0000020EE
:103A1000022105F0A3BA00F001B800002DE9F04141
:103A2000002809D0876837B10D4E716819B1046854
:103A3000B4F5807F02DD0020BDE8F081306884426B
:103A400000DD0446002507E057F82500FFF73CFDA0
:103A5000716841F825006D1CA542F5DB7068EBE745
:103A6000680100200449054A0968497C52F8211080
:103A70000969496808470000C0000020D8000020FC
:103A800010B5084A084B00F01F01C0F34514C0F3FD
:103A9000C420515C1B5D105C01EB032101EB004075
:103AA00010BD0000F8F0000818F1000870477047DA
:103AB00010B50A4C606860B920688000FDF71CFBF7
:103AC000606040B104F10801054808600846FFF74E
:103AD0003DFC002010BD012010BD00006801002049
:103AE0003D9500082DE9F041FFF73BFF0746002513
:103AF00028E02846FDF7E0FC18B32846FEF79EFBB9
:103B000080462846FFF708FF082817DC0F481049B1
:103B100050F825000069884210D02846FFF71EFFA4
:103B20000646002408E0E0B2FFF79CFF0246E1B23F
:103B3000284600F065F9641CB442F4DB4046FEF709
:103B40007DFB6D1CBD42D4DBBDE8F081D8000020B8
:103B5000E8F100082DE9FF4F83B01646DDE910407B
:103B60008B46C0684769426A7AB1012111A8904723
:103B700005000AD00698CDE9000433465A46039959
:103B80001198A84707B0BDE8F08F57480068407CFF
:103B9000FDF730FE8246082801DC012005E0BAF17D
:103BA000100F01DC022000E004208046002596E092
:103BB0004046B8F1010F05D0022871D0B8F1040FCA
:103BC00025D17CE0BAF1090F21D2DFE80AF08605A1
:103BD000213F3F5959595900039815E001465A466B
:103BE0001198B847C5F1070188404FF67F722178D8
:103BF000EA40114001436D1C217004EBE50425F0FF
:103C00000700054109F101008146B042E6DD64E0AC
:103C1000039817E001465A461198B8470621A1EBD0
:103C2000450188406B004FF63F722178DA40114021
:103C300001436D1C217004EBA50425F00300054130
:103C400009F101008146B042E4DD46E0039813E04B
:103C500001465A461198B8470421A1EB85018840D6
:103C60002178AB000F229A401140014321702C446F
:103C700085F0010509F101008146B042E8DD2CE044
:103C8000DDF80C9007E001465A461198B8472070BD
:103C900009F1010944444846B145F4DD1DE0FFE760
:103CA000DDF80C9007E001465A461198B84720808D
:103CB00009F1010944444846B145F4DD0DE0DDF861
:103CC0000C9007E001465A461198B847206009F168
:103CD000010944444846B145F4DD0BF1010B069956
:103CE0008B457FF765AF4DE7C000002070B5094CEC
:103CF00002212046FCF7A8FE074D2846FCF741FCB0
:103D000002212046FCF7DCFE2846BDE87040FCF7A7
:103D100038BC000000180140FCBF020010B50E4C7A
:103D20000E492068407C51F8200050B1C1680968F4
:103D3000042903D000680028F8D102E008B1FDF79B
:103D4000B9FB20680021016600F108014161BDE86E
:103D5000104000F02FB80000C0000020D800002064
:103D60000149096849680847640100200449096855
:103D70000A7C520701D5C96B00E0896B0860704767
:103D8000C00000207CB5094C05462068417C0848ED
:103D900050F82100C1680A6B6946904720686A465E
:103DA00029460830FFF7F3F97CBD0000C000002071
:103DB000D80000200448016804484A7C083150F8C3
:103DC0002200C268126B1047C0000020D8000020FB
:103DD0000149096809680847640100200449096825
:103DE0000A7C520701D5896B00E0C96B08607047F7
:103DF000C000002001490968896808476401002063
:103E0000F8B515460E460124FDF756FB009058B153
:103E1000C0681021426A68469047030004D02A46D1
:103E200031460098984700242046F8BDF8B515465D
:103E30000E460124FDF740FB009058B1C0680321F5
:103E4000426A68469047030004D02A4631460098EB
:103E5000984700242046F8BDF8B515460E460124C3
:103E6000FDF72AFB009058B1C0680B21426A6846F2
:103E70009047030004D02A46314600989847002412
:103E80002046F8BDF8B515460E460124FDF714FB93
:103E9000009058B1C0680A21426A68469047030002
:103EA00004D02A4631460098984700242046F8BDA1
:103EB00010B5074C2068006BFFF706FBFFF78EFF7D
:103EC0002068406BFFF700FBBDE81040FFF74EBFD6
:103ED000C000002001490880704700000000026017
:103EE0004FF0C04122200880704700004FF0C042D0
:103EF00010800148018070470000026030B5A1B019
:103F000014211CA8FCF757F9682102A8FCF753F903
:103F100000231A4625492648FDF776FA04464FF451
:103F2000A0752A46F0210020FFF796FF2A46F021CF
:103F30000020FFF7A7FF00211D911C910221209175
:103F40001CA92046FCF7BEFD1A490A911A490B919B
:103F50001A490D911A4911911A4B1B4A02A9204680
:103F6000FCF7D0FD0020FFF7EBFC04460020FFF734
:103F7000EAFC44EA40040020FFF72AFD44EA8000FE
:103F8000FEF730FBD5200021009040F61373EF229E
:103F90000846FEF721FA40F6DA600090BD236A1E5B
:103FA00000210120FEF718FA21B030BD20CD000815
:103FB00040CD0008E5420008C5420008D142000893
:103FC000B1420008850B0008390B000810B5012923
:103FD00002D04FF0FF3010BD06F0FEFE002010BDF5
:103FE0002DE9FF4F8DB01746674ADDF870901E9E91
:103FF000209812681D4600248AB11D9B1F98CDE9A8
:104000000293CDE90460DDE91A03CDE900031468E9
:104010002B463A460D98A04711B0BDE8F08F0D9A97
:1040200001EB050802EB070CDDE91A231A43A8F19E
:104030000108ACF1010C012A06D0C9F108004FF0CB
:10404000000B029105909CE0504A1268B2F90A40B8
:10405000631A002B06DDED1A002DDDDD21461D9CC7
:1040600003FB0466B2F90E30A8EB0303002B02DD5C
:10407000ED1A002DD0DDB2F90C30ACEB0303002BB0
:1040800000DDFF1A0D9B1C1AB2F90830A3420DDDAA
:10409000A3EB040C0CEB0003181A20F007000444F7
:1040A000A7EB0C0706EBE30603F00700002FB3DDD8
:1040B0001F9BDDF874C0CDE9040303968DE8201240
:1040C000527C33483B4650F82200C26855680A4685
:1040D0002146A847A0E71B990298084409902B495C
:1040E000401E03900A68B2F90A30834243DCB2F9F9
:1040F0000E10029881423EDB4FF0000A0D980B969D
:10410000D046009035E000BFBAF1000F05D10B9802
:104110004FF0080A10F8014B0B900599AAEB090A19
:1041200034FA01F004FA09F4E4B204D11749096839
:10413000097C890717D415490968C96B0A680C926C
:104140001F9A0AB152F82000086000991A980A18BC
:104150000846DDE90213521EFFF7B2FB0B490C982B
:104160000968C96B086000991A9808F101080844A9
:104170000090B845C8DB099802901D980BF1010B1F
:104180000644AB45A7DB47E7EC000020C000002059
:10419000D8000020002818D0410817D0810817D077
:1041A000C10817D0010917D0410917D0010A17D04B
:1041B000410A17D0010B15D0C10B13D0010C11D03F
:1041C000810C11D0000E11D02020704701207047C3
:1041D0000220704703207047042070470520704775
:1041E0000820704710207047122070471820704731
:1041F00000B50022FFF7CEFF012804D0811E06295A
:1042000003D808220BE0012209E0A0F109010729E7
:1042100001D8102203E011380F2800D820221046C0
:1042200000BD000038B50121182000F0ADF80120D4
:10423000ADF8000010208DF8030003208DF8020077
:104240000A4C69462046FCF7A7FB1821ADF8001080
:10425000074D69462846FCF79FFB01212046FCF7E5
:104260002FFC18212846FCF72BFC38BD000C014020
:10427000001001400B490868421C0A6064280FD9ED
:10428000002008600848016881F0010101600748CA
:10429000C16881F01001C160C16881F00801C1608E
:1042A000704700002C0000200C0C01400010014061
:1042B000034B02E01A8820F8022B491EFAD27047FD
:1042C00000000260014908807047000000000260A1
:1042D000034A02E030F8023B1380491EFAD27047CD
:1042E000000002604FF0C04108807047FEE7704751
:1042F000F0B50F23C278012601784FF0E027002A9D
:104300001BD0124A126802F4E062C2F5E062120A9F
:10431000C2F10404D3404578A54082781A402A436C
:1043200012010B4BCA54007800F01F018E40400967
:1043300007EB8000C0F80061F0BD01F01F0086406F
:10434000480907EB8000C0F88061F0BD0CED00E08B
:1043500000E400E002490843024908607047000099
:104360000000FA050CED00E070470000054A002946
:1043700003D05169014351617047516981435161D3
:104380007047000000100240054A002903D09169DF
:1043900001439161704791698143916170470000C9
:1043A0000010024010B5264A516801F00C01254B5F
:1043B000002927D0042927D0082927D00360516875
:1043C00001F0F0010909204B5C5C0168E1404160AB
:1043D000546804F4E064240A1C5D21FA04F4846047
:1043E000546804F46054E40A1B5DD940C16052680B
:1043F00002F44042920B144B1B1F9A5CB1FBF2F18A
:10440000016110BD0360DAE70360D8E7516801F489
:104410007011536803F48033022404EB914133B1EB
:1044200053689B0307D5094B59430160C7E7074B06
:1044300059430160C3E7034B59430160BFE70000E4
:104440000010024000127A001800002000093D0010
:104450002DE9FC470646002400940194002000F05A
:10446000C9F8800102D50E20BDE8FC872E4D6946B3
:10447000288980B2FCF7B2F90028F5D137202B4FFC
:104480004FF0060A4FF040094FF48068012E22D009
:104490000199C90345D52989090439607860C7F8AD
:1044A0000890FC60C7F81080384600F0D9F8372033
:1044B000FBF706FF0028D7D13C60C7F804A0C7F877
:1044C0000890FC60C7F81080384600F0C9F8062054
:1044D000FBF7F6FEC8E70199490320D529890904AD
:1044E00039607860C7F80890FC60C7F810800F4802
:1044F00000F0B6F83720FBF7E3FE0028B4D1022025
:104500003860C7F804A0C7F80890FC60C7F81080AE
:10451000064800F0A5F80620FBF7D2FEA4E7252008
:10452000A2E72520A0E700003400002010030020AF
:104530000149886370470000008001400149886399
:10454000704700000080014001490860704700008A
:10455000A000304201490860704700008C053042DD
:1045600010B5094902684A6242688A62CA6A22F042
:10457000F702D0E902342343D0E904400443234343
:104580001343CB6210BD00000080014006480021AB
:10459000016041608160C16041628162C162034A21
:1045A0008263C1637047000000800140FF07C000C4
:1045B00001480069C0B270470080014001460020F8
:1045C000024A526B0A4200D001207047008001402D
:1045D00001460020024A526B0A4200D00120704777
:1045E000008001400248006800F0030070470000AE
:1045F0000080014008B50349084400900098006815
:1046000008BD00001480014000F05EBC054A00298E
:1046100003D0D16B0143D1637047D16B8143D16328
:10462000704700000080014030B5094B596847F6DB
:10463000FF629143027D8468C568224344682C432D
:10464000224304680069224302430A435A6030BD92
:1046500000800140014800687047000080800140F0
:1046600010B5084902688A60CA686FF30A02D0E987
:1046700001342343D0E90340044323431343CB6075
:1046800010BD00000080014004490A6822F00302C6
:104690000A600A6802430A60704700000080014017
:1046A00008B5012000909DF8000008BD2DE9F041FB
:1046B000014600241D484068032805D038B1012870
:1046C00005D0022803D02FE02720BDE8F081B1F506
:1046D000805F0DD04FF400670026154D4FF00108A4
:1046E000B94212D10120FFF7B3FE044614B11BE01A
:1046F0002720EAE785F814802E606E60AE60EF60D8
:104700002E610B48FFF790FF0EE00020FFF7A0FEA0
:1047100004464CB985F814802E606E60AE60EE6081
:104720002E610348FFF780FF2046CEE734000020CB
:10473000F80200202DE9F043A3494F6880F8567035
:104740000989A0F85410DFF884C2DCF800100A0EC2
:1047500093090370C2F38303437002F00302827073
:10476000C1F30742C270C1F3072202714171DCF844
:104770000420110E0901C180C2F30741C38843EA36
:104780001113C38001F00F010172C2F30721CB099D
:104790004372C1F380138372C1F34013C372C1F338
:1047A000001303730023437364460126D4F8088082
:1047B000002F4FEA1864C8F30745C8F3072904D04F
:1047C000012F02D0022F3AD04CE08907090D016178
:1047D000D1B2026942EA81010161016941EA9411A1
:1047E0000161C4F3C201017504F007014175690953
:1047F0008175C5F38201C175A907490F0176494644
:10480000027E42EAD11202760269521C047EA41C86
:1048100006FA04F9A2FB094703FB09774FEAE97599
:1048200002FB0575027A06FA02F70765A4FB072961
:1048300005FB079504FB0354C0E9122412E091061E
:10484000890A0161016941EA042101610169294381
:10485000016149460269521CD204C0E912234FF497
:104860000072026500F11C00C1F3801200F8032CF5
:104870004FEA81614FEA516100F8021C08F0FF0124
:1048800010F8022C42EAD11200F8022C01F07F014C
:1048900000F8011CDCF80C204FEA12614FEAD11439
:1048A0000470C1F341144470C1F3820484704FEA70
:1048B00081714FEA1171C170C2F30741C47844EAB3
:1048C0009114C470C1F340140471437101F00101EB
:1048D0008171C2F307214FEAD114C471C1F380146E
:1048E0000472C1F340144472C1F300148472C1F322
:1048F0008104C47201F003010173D1B24FEA510186
:1049000041738673314A02F1100211684FEA116453
:104910000474C1F307444FEA04244482C1F307241A
:10492000458A45EA040545824FEA016141615168C3
:104930004FEA1164456945EA04444461C1F3074400
:10494000456945EA04244461C1F30724456945EA01
:1049500004054561017691684FEA11644476C1F31C
:1049600007444FEA0464C461C1F30724C56945EAFA
:104970000444C461C9B2C46944EA0121C161D16877
:104980004FEA1162C46944EA0204C461C1F30742F8
:1049900090F8204044EA121480F820404FEA027256
:1049A0004FEA12524284C1F30722448C44EA0204C3
:1049B0004484C9B24FEA510180F8241080F8256080
:1049C0001846BDE8F083000034000020700200208B
:1049D00008B500200090FFF763FE012801D0FF20FA
:1049E00008BD684600F09AFB08B1FF2008BD00989A
:1049F000C0F3432008BD10B5FFF7EAFF042803D039
:104A0000FF2803D0012010BD002010BD022010BDE2
:104A100038B50024009400F04DF9FFF7B7FD00F021
:104A20007DF900909DF8000010B19DF8000038BDA0
:104A300000F030F800909DF8000010B19DF80000E3
:104A400038BD134801210175046044608460C4606E
:104A50000461FFF7E9FD00F0A9F80D485838FFF7A9
:104A600069FE00909DF8000038B909485838B0F840
:104A70005400000400F03CFB00909DF8000020B9B9
:104A80004FF40060FFF712FE00909DF8000038BD63
:104A9000F80200202DE9F84F002401200090FFF7D4
:104AA000A1FDE0B1DFF8FC8000263F4DD8F80400FE
:104AB0004FF0C0094FF4806704282AD02E600220EE
:104AC0006860C5F80890EE602F612846FFF7C8FDC2
:104AD000FBF774FC044624B12046BDE8F88F25207E
:104AE000FBE70020FFF786FDDFF8BCA0AAF1900AE3
:104AF000CAF800000420FFF77DFDCAF80400082072
:104B0000FFF778FDCAF808000C20FFF773FDCAF81C
:104B10000C00D8F8040028B1012803D0062801D0E1
:104B2000022811D12E60032068604020A860EE604A
:104B30002F611D48FFF794FD69460320FBF77AFCBF
:104B400004460CB12046C8E7D8F80400042826D053
:104B5000BDF80000C8F8080000042860092068605B
:104B6000C5F80890EE602F610F48FFF779FDFBF75D
:104B700025FC04460CB12046AFE70020FFF73AFDC4
:104B8000094DA03D28600420FFF734FD686008202F
:104B9000FFF730FDA8600C20FFF72CFDE8602046F1
:104BA0009BE70000340000201003002038B54FF4CC
:104BB000E060FFF7CFFB31208DF8000000248DF876
:104BC00001408DF8024001208DF803006846FFF790
:104BD0008FFB3B208DF800008DF801406846FFF701
:104BE00087FB38BD70B58CB005460C461448FBF702
:104BF00085FC144E00213046FBF78EFC12480190D4
:104C0000029500200390A10804910590802106914F
:104C10008900079189000891099089000A910B90F9
:104C200001A93046FBF78FFC012202213046FBF739
:104C300080FC01213046FBF76FFC0CB070BD00001A
:104C400000F00010440402408080014070B58CB038
:104C500004460D461448FBF751FC144E0021304623
:104C6000FBF75AFC12480190029410200390A80808
:104C70000490002005908021069189000791890009
:104C80000891099089000A910B9001A93046FBF721
:104C90005AFC012202213046FBF74BFC0121304631
:104CA000FBF73AFC0CB070BD00F000104404024069
:104CB0008080014008B50121B020FFF765FB4FF46B
:104CC000F850ADF8000003208DF8020018208DF890
:104CD000030069460E48FBF75FFE0420ADF80000B4
:104CE00069460C48FBF758FE4FF40060ADF8000031
:104CF00048208DF8030069460748FBF74DFE012167
:104D00008802FFF733FB01210220FFF72FFB08BDCC
:104D10000010014000140140001C01402DE9F84F33
:104D200000270097BB460024A24600255948B2211F
:104D30000175076047608760C7600761FFF774FC13
:104D40000320FFF7A1FC0120FFF7FEFB514E1836B0
:104D500037607760B760F7604FF48069C6F81090ED
:104D60003046FFF77DFCFBF796FA00909DF80000B7
:104D700018B19DF80000BDE8F88F4FF4D570306091
:104D8000082070604FF04008C6F80880F760C6F849
:104D9000109040481830FFF763FCFBF78BFB009046
:104DA0009DF8000018B3376037207060C6F808809F
:104DB000F760C6F8109037481830FFF751FC3720DD
:104DC000FBF77EFA0090376037207060C6F80880E5
:104DD000F760C6F810902F481830FFF741FC3720D5
:104DE000FBF76EFA00909DF8000090B34FE02A4860
:104DF000012141608D07E6E7376037207060C6F813
:104E00000880F760C6F8109022481830FFF728FC99
:104E10003720FBF755FA00909DF8000010B19DF87F
:104E20000000A8E71D482843306029207060C6F8BC
:104E30000880F760C6F8109016481830FFF710FC8D
:104E4000FBF7DEFA00909DF8000018B19DF8000015
:104E500091E706E00020FFF7CDFB83464FEADB7ABF
:104E6000641CBAF1000F03D14FF6FF708442C3D324
:104E70004FF6FF70844204D31B2000909DF8000081
:104E800079E71BF0804F02D00348022141609DF872
:104E9000000070E7F80200203400002000001080BD
:104EA000054800680549084205D0054901204861C8
:104EB0000448FBF723BB70470004024000200010A9
:104EC0003400002000F0001070B54FF480752846C3
:104ED000FFF77EFB214C38B1002020702846FFF7F9
:104EE0002DFB0120206132E00220FFF771FB28B189
:104EF0000220FFF723FB0220207028E00820FFF7A4
:104F000067FB28B10820FFF719FB042020701EE082
:104F10002020FFF75DFB28B12020FFF70FFB0620C4
:104F2000207014E01020FFF753FB28B11020FFF78A
:104F300005FB052020700AE04FF400752846FFF7B6
:104F400047FB20B12846FFF7F9FA0720207000211F
:104F50004CF23A30FFF75AFB207870BD3400002045
:104F60002DE9F0478046089E14461D4629484FF01B
:104F7000000707700761C7602749CF6240680228B1
:104F800003D10602640A44EAC554244D2E60102061
:104F900068604FF04009C5F80890EF604FF4806AF0
:104FA000C5F810A02846FFF75BFB1020FBF788F937
:104FB00000281FD105F114004AF6FF710160466018
:104FC000902181600221C160076101214161FFF7E9
:104FD000C7FA2C6011206860C5F80890EF60C5F82A
:104FE00010A02846FFF73CFB1120FBF769F90446A7
:104FF00014B12046BDE8F087012140F22A30FFF7C6
:1050000005FB0120FFF7A6FA31464046FFF7EAFD0F
:105010002046EFE73400002000800140100300200C
:105020002DE9FF5F1446DDE90E6A1D462D484FF05D
:105030000007077007614FF00108C0F80C802A498B
:10504000CF624068022803D10602640A44EAC554CC
:10505000264D2E60102068604FF04009C5F808907A
:10506000EF604FF4806BC5F810B02846FFF7F8FAF0
:105070001020FBF725F9002822D105F114004AF68B
:10508000FF7101600AFB06FAC0F804A0902181605C
:105090000221C1600761C0F81480FFF761FA2C603B
:1050A00012206860C5F80890EF60C5F810B0284677
:1050B000FFF7D6FA1220FBF703F904461CB120468D
:1050C00004B0BDE8F09F012140F22A30FFF79EFABC
:1050D0000120FFF73FFA51460098FFF783FD204675
:1050E000EEE70000340000200080014010030020A3
:1050F00010B50949086007204860402088600020FA
:10510000C8604FF4806008610846FFF7A9FABDE85F
:1051100010400720FBF7D4B81003002070B50546F7
:10512000002D16D00F48008901040F4801600D21A1
:105130004160402181600021C1604FF480610161C4
:10514000FFF78EFA0D20FBF7BBF804461CB1204692
:1051500070BD262070BD0020FFF74CFA2860204665
:1051600070BD0000340000201003002010B5084876
:10517000002101600C22426040228260C160110166
:105180000161FFF76DFABDE810400C20FBF798B8FD
:105190001003002070B500254AF6FF742146144E16
:1051A00000E0491E706928B9306918B9307808B92B
:1051B0000029F6D1002070610E4800E0641E416BAA
:1051C000890401D5002CF9D1F068012802D1FFF73C
:1051D000CDFF05462C4300D1042540F2FF50FFF7D8
:1051E000A7F9307808B1307870BD284670BD00004E
:1051F000340000200080014070B500254AF6FF749D
:105200002146144E00E0491E706928B9306918B96A
:10521000307808B90029F6D1002070610E4800E00E
:10522000641E416BC90401D5002CF9D1F068012836
:1052300002D1FFF79BFF05462C4300D1042540F225
:10524000FF50FFF775F9307808B1307870BD284607
:1052500070BD000034000020008001402DE9F047BF
:105260008046089E14461D4628484FF000070770E8
:105270000761C7602649CF624068022803D1060251
:10528000640A44EAC554234D2E60102068604FF034
:105290004009C5F80890EF604FF4806AC5F810A087
:1052A0002846FFF7DDF91020FBF70AF800282BD17C
:1052B0002C6018206860C5F80890EF60C5F810A051
:1052C0002846FFF7CDF91820FAF7FAFF00281BD17E
:1052D00005F114024AF6FF7010605660902090604D
:1052E000D7601761012050611046FFF739F901219D
:1052F00040F22A30FFF78AF931464046FFF7A6FC14
:105300000120FFF727F93846BDE8F0873400002078
:1053100000800140100300202DE9FF5F1446DDE905
:105320000E671D46DFF808914FF0000889F80080ED
:10533000C9F810804FF00100C9F80C003D48C0F8D2
:105340002C80D9F80400022803D10602640A44EA3A
:10535000C554394D2E60102068604FF0400AC5F8E2
:1053600008A0C5F80C804FF4806BC5F810B0284633
:10537000FFF776F91020FAF7A3FF002854D1B9F807
:1053800008000004286037206860C5F808A0C5F848
:105390000C80C5F810B02846FFF762F93720FAF7FD
:1053A0008FFF002840D12F6017206860C5F808A043
:1053B000C5F80C80C5F810B02846FFF751F9172042
:1053C000FAF77EFF00282FD12C6019206860C5F8FD
:1053D00008A0C5F80C80C5F810B02846FFF740F9C2
:1053E0001920FAF76DFF00281ED105F114024AF6C4
:1053F000FF7010607743576090209060C2F80C8077
:10540000C2F81080012050611046FFF7A9F8012171
:1054100040F22A30FFF7FAF80120FFF79BF83946EF
:105420000098FFF713FC404604B0BDE8F09F000071
:10543000340000200080014010030020704700F07D
:1054400001B800000CB500220192009227480168C3
:1054500041F4803101604FF4A063016801F4003130
:1054600000910199491C0191009911B90199994242
:10547000F3D10168890302D50121009100E0009277
:105480000099012930D11A490A6842F010020A60D5
:105490000A6822F003020A600A6842F002020A6007
:1054A0004168416041684160416841F48061416008
:1054B000416821F47C114160416841F4E811416088
:1054C000016841F08071016001688901FCD5416883
:1054D00021F003014160416841F0020141604168EF
:1054E000C1F381010229FAD10CBD00000010024075
:1054F0000020024010B509480168491C0160084CB1
:105500002078401CC0B220700A2803D1FCF7BCFFF1
:1055100000202070BDE81040FEF7ACBE5400002013
:10552000280000200E484FF47A710068B0FBF1F0BB
:10553000B0F1807F01D301200DE020F07F414FF0DA
:10554000E020491E4161074AF0211170002181616C
:10555000072101610020002800D0FEE7704700000D
:105560000000002023ED00E010B50F48016841F075
:105570000101016041680D4A1140416001680C4A17
:1055800011400160016821F480210160416821F42B
:10559000FE0141604FF41F018160FFF750FF054994
:1055A0004FF00060086010BD001002400000FFF8DE
:1055B000FFFFF6FE08ED00E0FBF748BA10B586B035
:1055C000012144F20400FEF7DFFE4FF40070ADF855
:1055D000140018208DF8170003208DF81600144CC5
:1055E00005A92046FBF7D8F92115ADF814100421C0
:1055F0008DF8171005A92046FBF7CEF94FF4E130DE
:1056000001900020ADF80800ADF80A00ADF80C00DC
:10561000ADF810000C20ADF80E00064C01A9204694
:1056200000F01EF80121204600F006F806B010BD7B
:105630000008014000380140002904D0818941F46C
:10564000005181817047818921F400518181704727
:105650000246002012880A4200D001207047000054
:1056600030B585B004460D46208A4CF6FF710840DF
:10567000E98801432182A0894EF6F3110840A988E8
:105680002A8911436A8902431143A181A08A4FF6F6
:10569000FF410840A9890143A1826846FEF782FEC6
:1056A0001D48844201D1039800E00298A1890904B1
:1056B00008D500EBC00101EB001029684900B0FBE0
:1056C000F1F007E000EBC00101EB00102968890050
:1056D000B0FBF1F06422B0FBF2F109010B096FF0AD
:1056E00018056B4300EB8300A3891D044FF03203C0
:1056F00007D503EBC000B0FBF2F000F00700084351
:1057000006E003EB0010B0FBF2F000F00F000843DE
:10571000208105B030BD000000380140C1F3080110
:1057200081807047FEE7000002490120096881F886
:1057300054007047C00000202DE9F0418AB00400F9
:1057400036D0FBF74DFD0190D0E90012CDE90412EF
:10575000876A056A01A8FBF773FD204600F04EFE3C
:10576000060025D0204600F0C4F98046B80704D5CD
:105770002A46414604A800F09FFF2046FBF730FD73
:1057800001904046FBF72CFD06903046FBF728FDC4
:10579000039005620698019AC1691162C46101A86B
:1057A000FBF74EFD06A8FBF74BFD03A8FBF748FDF2
:1057B0000AB0BDE8F08100002DE9FC5FDFF838A1F8
:1057C0000746DDE90C54DAF81400DDF83CB09846E1
:1057D00091460E4604434DB9BAF8020048B3474813
:1057E0000AF138010068407C51F82050681C0ED046
:1057F000FDB12846FBF7F4FC0190B0F90010B0F9B8
:1058000002200F441644B9F1000F02D006E0002533
:105810000FE0B0F90430591A01F10109B8F1000F95
:1058200004D1B0F90600801A00F1010801A8FBF7C5
:1058300007FD0BF12C00FBF71CFC5FEA000B57D0B7
:10584000BAF80200401CAAF802005846FBF7C8FC50
:105850000090078007EB09014680491E818006EB16
:105860000801491EC1800E990161254A816A2240C2
:10587000114381626846FBF7E3FCDAF80C005E46F0
:1058800050B1FBF7F5FC07463046FBF7F1FC01464B
:10589000786948617E6101E0CAF80CB02946584633
:1058A00000F042FEA00602D5584600F067FCE00773
:1058B00005D0DAF8201001F10101CAF820106006C5
:1058C00002D55846FFF738FFA0070DD55846FBF71D
:1058D00087FC0090816A41F0020181626846FBF713
:1058E000AFFC584600F063FB0121584601F02FF948
:1058F0005846BDE8FC9F000078010020C000002051
:105900009F3F070003490020096881F85400FEF713
:1059100051BA0000C000002010B50446C168D4E9A7
:105920000020172A0DD004DC0E2A0CD0142A07D12F
:1059300004E0222A0CD0282A02D10CE000F018FD45
:105940000020E06010BD2146BDE8104000F036BCEC
:105950006FF07040F5E7BDE8104000F028BB38B5A7
:1059600004000BD0FBF73CFC00900068FCF7E2FC65
:105970006846FBF765FC2046FBF796FB38BD000048
:10598000F8B505005CD000F0F3FE002858D028469A
:1059900000F046FD06460B21284601F0D8F82846BF
:1059A00000F0ADFC2846FBF71BFC0090406A08B1F4
:1059B000FCF77EF8234C002104F15002A162A0689C
:1059C00052F82030AB4201D142F820101D4A483233
:1059D00052F82030AB4201D142F82010206904E097
:1059E0004368AB4200D1416000680028F8D107212C
:1059F000284600F012FB009801F008FC284600F051
:105A0000A3FC284601F022F80098806AC10703D061
:105A1000216AA1F101012162800602D5A088401E01
:105A2000A0806846FBF70CFC6088401E608028461A
:105A3000FBF73AFB0348383050F8260000F09EFB95
:105A4000F8BD0000780100202DE9F041002500E0BC
:105A5000012502F06BFE0028FAD1154E154C306876
:105A600090F8540038B1A08828B1E069012720B12E
:105A70000068804704E000270EE00120FDF7B0FB3E
:105A8000306890F8540038B1A08828B102F018FDB1
:105A9000A08808B10125F3E73FB1E06910B1406883
:105AA000804702E00020FDF79BFB2846BDE8F0811F
:105AB000C000002078010020034804490068407CB1
:105AC00051F8200070470000C0000020B001002005
:105AD0000021022802D2024951F8201008467047DE
